S00B00006174322E7372656312
S11300000C942A000C94F0000C943C000C943C00DA
S11300100C943C000C943C000C943C000C943C006C
S11300200C943C000C943C000C943C000C94B802DE
S11300300C943C000C943C000C943C000C943C004C
S11300400C943C000C943C000C943C000C943C003C
S11300500C943C0011241FBECFE5D8E0DEBFCDBF19
S113006020E0A0E6B0E001C01D92A936B207E1F796
S11300700E9452010C9404030C9400000E949B0201
S11300800E9486020E948A020E9482028FE491E00A
S11300900E94940262E084E40E94EC0060E081E447
S11300A00E94430161E081E40E94430162E081E433
S11300B00E94430160E082E40E94430161E082E423
S11300C00E94430162E082E40E944301089580910A
S11300D06100811118C060E081E40E94470161E081
S11300E082E40E9447010E94AD028091610090E089
S11300F0019683709078992324F401978C6F9F6FF5
S1130100019680936100809161008130C1F40E9466
S1130110AD0261E081E40E944B0161E082E40E944F
S11301204B018091610090E001968370907899234F
S113013024F401978C6F9F6F0196809361008091E6
S11301406100823021F580916000882341F060E0F5
S113015082E40E94470162E082E40E944B0160E075
S113016081E40E944B0162E081E40E9447010E9405
S1130170AD028091610090E001968370907899239C
S113018024F401978C6F9F6F0196809361000E9405
S1130190AD0260E082E40E944B0161E081E40E94D0
S11301A04B0161E082E40E944B0180916100833045
S11301B091F490E0019683709078992324F4019748
S11301C08C6F9F6F01968093610062E081E40E94CE
S11301D04B0110926000089540E00E945701089579
S11301E01F920F920FB60F9211242F933F934F93A8
S11301F05F936F937F938F939F93AF93BF93EF938B
S1130200FF938091650081112DC08091640081115C
S113021004C084E18093660022C0813059F461E017
S113022081E40E944B0161E082E40E944B010E9440
S1130230B20215C0823059F40E94B20262E082E434
S11302400E944B0160E082E40E94470108C08330B1
S113025031F484E18093660081E08093640081E05E
S113026080936500FF91EF91BF91AF919F918F9122
S11302707F916F915F914F913F912F910F900FBE9E
S11302800F901F90189541E00E945701089541E096
S11302900E94D101089540E00E94D10108950E9476
S11302A04B0208950E943E000E946700FDCF8234F5
S11302B031F118F4813439F008958334E1F1843450
S11302C009F454C0089541110CC02AB381E090E0B0
S11302D002C0880F991F6A95E2F7809582238ABB32
S11302E00895413009F05CC02AB381E090E002C077
S11302F0880F991F6A95E2F7822B8ABB08954111F2
S11303000CC027B381E090E002C0880F991F6A9562
S1130310E2F78095822387BB0895413009F040C0FD
S113032027B381E090E002C0880F991F6A95E2F735
S1130330822B87BB089541110CC024B381E090E067
S113034002C0880F991F6A95E2F78095822384BBC7
S11303500895413029F524B381E090E002C0880F6C
S1130360991F6A95E2F7822B84BB089541110CC052
S113037021B381E090E002C0880F991F6A95E2F7EB
S11303808095822381BB0895413051F421B381E0EB
S113039090E002C0880F991F6A95E2F7822B81BB17
S11303A00895823431F118F4813439F00895833496
S11303B0E1F1843409F454C0089541110CC02BB305
S11303C081E090E002C0880F991F6A95E2F780955A
S11303D082238BBB0895413009F05CC02BB381E0CC
S11303E090E002C0880F991F6A95E2F7822B8BBBBD
S11303F0089541110CC028B381E090E002C0880F39
S1130400991F6A95E2F78095822388BB089541304D
S113041009F040C028B381E090E002C0880F991F22
S11304206A95E2F7822B88BB089541110CC025B36D
S113043081E090E002C0880F991F6A95E2F78095E9
S1130440822385BB0895413029F525B381E090E0EE
S113045002C0880F991F6A95E2F7822B85BB089525
S113046041110CC022B381E090E002C0880F991FB3
S11304706A95E2F78095822382BB0895413051F456
S113048022B381E090E002C0880F991F6A95E2F7D9
S1130490822B82BB08958234A1F018F4813431F0A8
S11304A008958334C9F0843411F108952BB381E0A5
S11304B090E002C0880F991F6A95E2F782278BBBF0
S11304C0089528B381E090E002C0880F991F6A95CF
S11304D0E2F7822788BB089525B381E090E002C04B
S11304E0880F991F6A95E2F7822785BB089522B386
S11304F081E090E002C0880F991F6A95E2F7822795
S113050082BB08958FB780688FBF089589B78160D3
S113051089BF089585B7816085BF85B7826085BF2F
S11305208BB780648BBF08959093630080936200BF
S1130530089582BF089583B783BF8BE00E94990218
S1130540089583B7856083BF809166008431E0F3AA
S1130550089513BE1092660008950E94A1020E949D
S1130560A90208958BE00E949902109266000895F2
S11305701F920F920FB60F9211242F933F934F9314
S11305805F936F937F938F939F93AF93BF93EF93F7
S1130590FF938BE00E949902809166008F5F8093A5
S11305A0660080916800813011F08330E1F480911D
S11305B06700811108C0E0916200F091630061E07E
S11305C081E4099510C0882371F0E0916200F091F4
S11305D0630061E081E40995E0916200F0916300B9
S11305E061E082E40995FF91EF91BF91AF919F91F2
S11305F08F917F916F915F914F913F912F910F90C8
S10F06000FBE0F901F901895F894FFCFC8
S9030000FC
