S01E00004F6E2D44656D616E642D747261666669634C696768742E73726563CF
S11300000C942A000C94FB000C9447000C944700B9
S11300100C9447000C9447000C9447000C94470040
S11300200C9447000C9447000C9447000C94CC02A9
S11300300C9447000C9447000C9447000C94470020
S11300400C9447000C9447000C9447000C94470010
S11300500C94470011241FBECFE5D8E0DEBFCDBF0E
S113006010E0A0E6B0E0E0EFFBE002C005900D92E6
S1130070A836B107D9F720E0A8E6B0E001C01D9288
S1130080A737B207E1F70E945D010C94F6050C94C2
S113009000000E94AF020E949A020E949E020E94E7
S11300A096028AE591E00E94A80262E084E40E943C
S11300B0F70060E081E40E944E0161E081E40E9467
S11300C04E0162E081E40E944E0160E082E40E94FD
S11300D04E0161E082E40E944E0162E082E40E94EB
S11300E04E01089580916900811118C060E081E497
S11300F00E94520161E082E40E9452010E94C10206
S11301008091690090E0019683709078992324F49B
S113011001978C6F9F6F01968093690080916900AD
S11301208130C1F40E94C10261E081E40E94560161
S113013061E082E40E9456018091690090E001969A
S113014083709078992324F401978C6F9F6F0196A4
S11301508093690080916900823021F58091680064
S1130160882341F060E082E40E94520162E082E46C
S11301700E94560160E081E40E94560162E081E43D
S11301800E9452010E94C1028091690090E0019690
S113019083709078992324F401978C6F9F6F019654
S11301A0809369000E94C10260E082E40E945601CB
S11301B061E081E40E94560161E082E40E945601FC
S11301C080916900833091F490E001968370907877
S11301D0992324F401978C6F9F6F01968093690093
S11301E062E081E40E94560110926800089540E0A4
S11301F00E94620108951F920F920FB60F9211246C
S11302002F933F934F935F936F937F938F939F931A
S1130210AF93BF93EF93FF9380916D0081112DC035
S113022080916C00811104C084E180936E0022C02F
S1130230813059F461E081E40E94560161E082E476
S11302400E9456010E94C60215C0823059F40E94D1
S1130250C60262E082E40E94560160E082E40E94E9
S1130260520108C0833031F484E180936E0081E050
S113027080936C0081E080936D00FF91EF91BF91BA
S1130280AF919F918F917F916F915F914F913F912A
S11302902F910F900FBE0F901F90189541E00E9470
S11302A06201089541E00E94E501089540E00E9442
S11302B0E50108950E945F0208950E9449000E948A
S11302C07200FDCF823479F118F4813441F008953D
S11302D0833409F444C0843409F45CC008954111A2
S11302E00CC02AB381E090E002C0880F991F6A9580
S11302F0E2F7809582238ABB0895413059F42AB3EA
S113030081E090E002C0880F991F6A95E2F7822B82
S11303108ABB089580E690E09F938F930E94180310
S11303200F900F90089541110CC027B381E090E025
S113033002C0880F991F6A95E2F78095822387BBD4
S11303400895413009F040C027B381E090E002C035
S1130350880F991F6A95E2F7822B87BB0895411194
S11303600CC024B381E090E002C0880F991F6A9505
S1130370E2F78095822384BB0895413029F524B3A4
S113038081E090E002C0880F991F6A95E2F7822B02
S113039084BB089541110CC021B381E090E002C0F8
S11303A0880F991F6A95E2F78095822381BB08958F
S11303B0413051F421B381E090E002C0880F991FCD
S11303C06A95E2F7822B81BB0895823431F118F4E7
S11303D0813439F008958334E1F1843409F454C04C
S11303E0089541110CC02BB381E090E002C0880F46
S11303F0991F6A95E2F7809582238BBB089541305B
S113040009F05CC02BB381E090E002C0880F991F13
S11304106A95E2F7822B8BBB089541110CC028B377
S113042081E090E002C0880F991F6A95E2F78095F9
S1130430822388BB0895413009F040C028B381E08D
S113044090E002C0880F991F6A95E2F7822B88BB5F
S1130450089541110CC025B381E090E002C0880FDB
S1130460991F6A95E2F78095822385BB08954130F0
S113047029F525B381E090E002C0880F991F6A95A1
S1130480E2F7822B85BB089541110CC022B381E0B1
S113049090E002C0880F991F6A95E2F78095822345
S11304A082BB0895413051F422B381E090E002C050
S11304B0880F991F6A95E2F7822B82BB08958234D4
S11304C0A1F018F4813431F008958334C9F08434F0
S11304D011F108952BB381E090E002C0880F991FB9
S11304E06A95E2F782278BBB089528B381E090E0F8
S11304F002C0880F991F6A95E2F7822788BB089586
S113050025B381E090E002C0880F991F6A95E2F755
S1130510822785BB089522B381E090E002C0880F52
S1130520991F6A95E2F7822782BB08958FB7806886
S11305308FBF089589B7816089BF089585B78160A9
S113054085BF85B7826085BF8BB780648BBF0895F4
S113055090936B0080936A00089582BF089583B7D7
S113056083BF8BE00E94AD02089583B7856083BF8B
S113057080916E008431E0F3089513BE10926E00F2
S113058008950E94B5020E94BD0208958BE00E9466
S1130590AD0210926E0008951F920F920FB60F9243
S11305A011242F933F934F935F936F937F938F9374
S11305B09F93AF93BF93EF93FF938BE00E94AD02A1
S11305C080916E008F5F80936E0080917000813007
S11305D011F08330E1F480916F00811108C0E09143
S11305E06A00F0916B0061E081E4099510C08823F2
S11305F071F0E0916A00F0916B0061E081E409958B
S1130600E0916A00F0916B0061E082E40995FF914A
S1130610EF91BF91AF919F918F917F916F915F9176
S11306204F913F912F910F900FBE0F901F901895EF
S1130630A0E0B0E0EEE1F3E00C94CF05AE014B5F37
S11306405F4FFA0161917191AF01809173009091B4
S113065074000E942E03E2E00C94EB05ABE0B0E0E2
S1130660E4E3F3E00C94BF056C017B018A01FC0117
S113067017821682838181FFCCC1CE0101963C0191
S1130680F6019381F70193FD859193FF81917F0199
S1130690882309F4BAC1853239F493FD859193FF17
S11306A081917F01853229F4B60190E00E942505ED
S11306B0E7CF912C212C312CFFE1F315D8F08B32AC
S11306C079F038F4803279F08332A1F4232D20615B
S11306D01DC08D3261F0803369F4232D216016C072
S11306E0832D8260382EE32DE4603E2E2AC0F32D44
S11306F0F8601DC037FC2DC020ED280F2A3040F0D3
S11307008E32B9F436FC81C1232D2064322E19C0F7
S113071036FE06C08AE0989E200D1124922E11C048
S1130720EAE02E9E200D1124222EF32DF0623F2E9E
S113073008C08C3621F4832D8068382E02C0883698
S113074041F4F70193FD859193FF81917F0181111C
S1130750B3CF982F9F7D9554933028F40C5F1F4F8F
S11307609FE399830DC0833631F0833771F083356D
S113077009F059C021C0F801808189830E5F1F4FA1
S113078088248394912C530113C02801F2E04F0E66
S1130790511CF801A080B18036FE03C0692D70E0C1
S11307A002C06FEF7FEFC5010E941A054C01820160
S11307B0F32DFF773F2E16C0280122E0420E511C74
S11307C0F801A080B18036FE03C0692D70E002C03C
S11307D06FEF7FEFC5010E940F054C01F32DF06808
S11307E03F2E820133FC1BC0822D90E088169906AF
S11307F0B0F4B60180E290E00E9425052A94F4CF7B
S1130800F50137FC859137FE81915F01B60190E0D7
S11308100E94250521102A9421E0821A910881144E
S1130820910471F7E8C0843611F0893641F5F80176
S113083037FE07C060817181828193810C5F1F4FF5
S113084008C060817181072E000C880B990B0E5F24
S11308501F4FF32DFF763F2E97FF09C0909580958B
S1130860709561957F4F8F4F9F4FF0683F2E2AE020
S113087030E0A3010E946105882E861845C08537A3
S113088031F4232D2F7EB22E2AE030E025C0932DA3
S1130890997FB92E8F36C1F018F4883579F0B5C038
S11308A0803719F0883721F0B0C0E92FE061BE2EFF
S11308B0B4FE0DC0FB2DF460BF2E09C034FE0AC087
S11308C0292F2660B22E06C028E030E005C020E1C2
S11308D030E002C020E132E0F801B7FE07C06081D9
S11308E07181828193810C5F1F4F06C06081718189
S11308F080E090E00E5F1F4FA3010E946105882EE7
S11309008618FB2DFF773F2E36FE0DC0232D2E7F3C
S1130910A22E891458F434FE0BC032FC09C0832D76
S11309208E7EA82E05C0B82CA32C03C0B82C01C001
S1130930B92CA4FE0FC0FE01E80DF11D80818033A7
S113094021F49A2D997EA92E09C0A2FE06C0B39463
S1130950B39404C08A2D867809F0B394A3FC11C023
S1130960A0FE06C0B21488F4280C922C9B180EC06A
S1130970B21460F4B60180E290E00E942505B394BD
S1130980F7CFB21418F42B1802C0982C212CA4FE13
S113099010C0B60180E390E00E942505A2FE17C0B6
S11309A0A1FC03C088E790E002C088E590E0B601AE
S11309B00CC08A2D867859F0A1FE02C08BE201C0DA
S11309C080E2A7FC8DE2B60190E00E94250589141F
S11309D038F4B60180E390E00E9425059A94F7CF9D
S11309E08A94F301E80DF11D8081B60190E00E9424
S11309F025058110F5CF222009F442CEB60180E20C
S1130A0090E00E9425052A94F6CFF601868197810D
S1130A1002C08FEF9FEF2B96E2E10C94DB05FC0103
S1130A200590615070400110D8F7809590958E0F15
S1130A309F1F0895FC016150704001900110D8F788
S1130A40809590958E0F9F1F08950F931F93CF93BA
S1130A50DF93FB01238121FD03C08FEF9FEF2CC0A7
S1130A6022FF16C0468157812481358142175307DE
S1130A7044F4A081B1819D012F5F3F4F31832083D6
S1130A808C93268137812F5F3F4F3783268314C091
S1130A908B01EC01FB010084F185E02D0995892B84
S1130AA0E1F6D80116968D919C91179701961796A9
S1130AB09C938E931697CE01DF91CF911F910F9146
S1130AC00895FA01AA27283051F1203181F1E894E0
S1130AD06F936E7F6E5F7F4F8F4F9F4FAF4FB1E02D
S1130AE03ED0B4E03CD0670F781F891F9A1FA11D28
S1130AF0680F791F8A1F911DA11D6A0F711D811D29
S1130B00911DA11D20D009F468943F912AE0269FED
S1130B1011243019305D3193DEF6CF010895462F4C
S1130B204770405D4193B3E00FD0C9F7F6CF462F2D
S1130B304F70405D4A3318F0495D31FD4052419396
S1130B4002D0A9F7EACFB4E0A69597958795779553
S1130B506795BA95C9F700976105710508959B01DA
S1130B60AC010A2E06945795479537952795BA9563
S1130B70C9F7620F731F841F951FA01D08952F923C
S1130B803F924F925F926F927F928F929F92AF9219
S1130B90BF92CF92DF92EF92FF920F931F93CF9366
S1130BA0DF93CDB7DEB7CA1BDB0B0FB6F894DEBFFD
S1130BB00FBECDBF09942A88398848885F846E8423
S1130BC07D848C849B84AA84B984C884DF80EE806D
S1130BD0FD800C811B81AA81B981CE0FD11D0FB676
S1130BE0F894DEBF0FBECDBFED010895F894FFCF9A
S10B0BF04572726F722E2E0093
S9030000FC
